{
  "contractName": "VotingContract",
  "abi": [
    {
      "inputs": [],
      "payable": false,
      "stateMutability": "nonpayable",
      "type": "constructor"
    },
    {
      "anonymous": false,
      "inputs": [
        {
          "indexed": false,
          "internalType": "string",
          "name": "name",
          "type": "string"
        },
        {
          "indexed": false,
          "internalType": "string",
          "name": "ward",
          "type": "string"
        },
        {
          "indexed": false,
          "internalType": "uint256",
          "name": "vote_count",
          "type": "uint256"
        }
      ],
      "name": "EmitContestant",
      "type": "event"
    },
    {
      "anonymous": false,
      "inputs": [
        {
          "indexed": false,
          "internalType": "string",
          "name": "name",
          "type": "string"
        },
        {
          "indexed": false,
          "internalType": "string",
          "name": "ward",
          "type": "string"
        },
        {
          "indexed": false,
          "internalType": "uint256",
          "name": "vote_count",
          "type": "uint256"
        }
      ],
      "name": "EmitInvidualContestant",
      "type": "event"
    },
    {
      "anonymous": false,
      "inputs": [
        {
          "indexed": false,
          "internalType": "string",
          "name": "name",
          "type": "string"
        },
        {
          "indexed": false,
          "internalType": "string",
          "name": "ward",
          "type": "string"
        }
      ],
      "name": "contesterAdded",
      "type": "event"
    },
    {
      "constant": false,
      "inputs": [
        {
          "internalType": "string",
          "name": "_name",
          "type": "string"
        },
        {
          "internalType": "string",
          "name": "_ward",
          "type": "string"
        }
      ],
      "name": "AddContestant",
      "outputs": [],
      "payable": false,
      "stateMutability": "nonpayable",
      "type": "function"
    },
    {
      "constant": false,
      "inputs": [],
      "name": "getContestants",
      "outputs": [],
      "payable": false,
      "stateMutability": "nonpayable",
      "type": "function"
    },
    {
      "constant": false,
      "inputs": [
        {
          "internalType": "string",
          "name": "_con_name",
          "type": "string"
        }
      ],
      "name": "getIndividualContestant",
      "outputs": [],
      "payable": false,
      "stateMutability": "nonpayable",
      "type": "function"
    },
    {
      "constant": false,
      "inputs": [
        {
          "internalType": "string",
          "name": "_name",
          "type": "string"
        }
      ],
      "name": "CastVote",
      "outputs": [],
      "payable": false,
      "stateMutability": "nonpayable",
      "type": "function"
    }
  ],
  "bytecode": "0x608060405234801561001057600080fd5b5042600081905550611380806100276000396000f3fe608060405234801561001057600080fd5b5060043610610069576000357c01000000000000000000000000000000000000000000000000000000009004806318c7e5ec1461006e57806364021fc9146101295780636d6792ec146101e4578063c10196fa14610336575b600080fd5b6101276004803603602081101561008457600080fd5b81019080803590602001906401000000008111156100a157600080fd5b8201836020820111156100b357600080fd5b803590602001918460018302840111640100000000831117156100d557600080fd5b91908080601f016020809104026020016040519081016040528093929190818152602001838380828437600081840152601f19601f820116905080830192505050505050509192919290505050610340565b005b6101e26004803603602081101561013f57600080fd5b810190808035906020019064010000000081111561015c57600080fd5b82018360208201111561016e57600080fd5b8035906020019184600183028401116401000000008311171561019057600080fd5b91908080601f016020809104026020016040519081016040528093929190818152602001838380828437600081840152601f19601f82011690508083019250505050505050919291929050505061062d565b005b610334600480360360408110156101fa57600080fd5b810190808035906020019064010000000081111561021757600080fd5b82018360208201111561022957600080fd5b8035906020019184600183028401116401000000008311171561024b57600080fd5b91908080601f016020809104026020016040519081016040528093929190818152602001838380828437600081840152601f19601f820116905080830192505050505050509192919290803590602001906401000000008111156102ae57600080fd5b8201836020820111156102c057600080fd5b803590602001918460018302840111640100000000831117156102e257600080fd5b91908080601f016020809104026020016040519081016040528093929190818152602001838380828437600081840152601f19601f820116905080830192505050505050509192919290505050610aa4565b005b61033e610ea8565b005b6103486111d3565b6002826040518082805190602001908083835b6020831061037e578051825260208201915060208101905060208303925061035b565b6001836020036101000a0380198251168184511680821785525050505050509050019150509081526020016040518091039020604051806060016040529081600082018054600181600116156101000203166002900480601f0160208091040260200160405190810160405280929190818152602001828054600181600116156101000203166002900480156104555780601f1061042a57610100808354040283529160200191610455565b820191906000526020600020905b81548152906001019060200180831161043857829003601f168201915b50505050508152602001600182018054600181600116156101000203166002900480601f0160208091040260200160405190810160405280929190818152602001828054600181600116156101000203166002900480156104f75780601f106104cc576101008083540402835291602001916104f7565b820191906000526020600020905b8154815290600101906020018083116104da57829003601f168201915b5050505050815260200160028201548152505090507f8caf956ab0161ce67ddb4a969029c6a70ca3d92002969f078fed67fafd0cb2f9816000015182602001518360400151604051808060200180602001848152602001838103835286818151815260200191508051906020019080838360005b8381101561058657808201518184015260208101905061056b565b50505050905090810190601f1680156105b35780820380516001836020036101000a031916815260200191505b50838103825285818151815260200191508051906020019080838360005b838110156105ec5780820151818401526020810190506105d1565b50505050905090810190601f1680156106195780820380516001836020036101000a031916815260200191505b509550505050505060405180910390a15050565b601e6000540142101561063f57600080fd5b6106476111f4565b600160003373ffffffffffffffffffffffffffffffffffffffff1673ffffffffffffffffffffffffffffffffffffffff1681526020019081526020016000206040518060400160405290816000820160009054906101000a900460ff161515151581526020016000820160019054906101000a900473ffffffffffffffffffffffffffffffffffffffff1673ffffffffffffffffffffffffffffffffffffffff1673ffffffffffffffffffffffffffffffffffffffff1681525050905060011515816000015115151415610783576040517f08c379a00000000000000000000000000000000000000000000000000000000081526004018080602001828103825260118152602001807f596f7520416c726561647920566f74656400000000000000000000000000000081525060200191505060405180910390fd5b60001515816000015115151415610aa05761079c6111d3565b6002836040518082805190602001908083835b602083106107d257805182526020820191506020810190506020830392506107af565b6001836020036101000a0380198251168184511680821785525050505050509050019150509081526020016040518091039020604051806060016040529081600082018054600181600116156101000203166002900480601f0160208091040260200160405190810160405280929190818152602001828054600181600116156101000203166002900480156108a95780601f1061087e576101008083540402835291602001916108a9565b820191906000526020600020905b81548152906001019060200180831161088c57829003601f168201915b50505050508152602001600182018054600181600116156101000203166002900480601f01602080910402602001604051908101604052809291908181526020018280546001816001161561010002031660029004801561094b5780601f106109205761010080835404028352916020019161094b565b820191906000526020600020905b81548152906001019060200180831161092e57829003601f168201915b5050505050815260200160028201548152505090508060400180518091906001018152505060018260000190151590811515815250507f8caf956ab0161ce67ddb4a969029c6a70ca3d92002969f078fed67fafd0cb2f9816000015182602001518360400151604051808060200180602001848152602001838103835286818151815260200191508051906020019080838360005b838110156109fb5780820151818401526020810190506109e0565b50505050905090810190601f168015610a285780820380516001836020036101000a031916815260200191505b50838103825285818151815260200191508051906020019080838360005b83811015610a61578082015181840152602081019050610a46565b50505050905090810190601f168015610a8e5780820380516001836020036101000a031916815260200191505b509550505050505060405180910390a1505b5050565b610aac6111d3565b6002836040518082805190602001908083835b60208310610ae25780518252602082019150602081019050602083039250610abf565b6001836020036101000a0380198251168184511680821785525050505050509050019150509081526020016040518091039020604051806060016040529081600082018054600181600116156101000203166002900480601f016020809104026020016040519081016040528092919081815260200182805460018160011615610100020316600290048015610bb95780601f10610b8e57610100808354040283529160200191610bb9565b820191906000526020600020905b815481529060010190602001808311610b9c57829003601f168201915b50505050508152602001600182018054600181600116156101000203166002900480601f016020809104026020016040519081016040528092919081815260200182805460018160011615610100020316600290048015610c5b5780601f10610c3057610100808354040283529160200191610c5b565b820191906000526020600020905b815481529060010190602001808311610c3e57829003601f168201915b505050505081526020016002820154815250509050606081600001519050600060059050600082511415610e2957806003805490501015610da8578483600001819052508383602001819052506000836040018181525050826002866040518082805190602001908083835b60208310610cea5780518252602082019150602081019050602083039250610cc7565b6001836020036101000a03801982511681845116808217855250505050505090500191505090815260200160405180910390206000820151816000019080519060200190610d39929190611226565b506020820151816001019080519060200190610d56929190611226565b50604082015181600201559050506003859080600181540180825580915050906001820390600052602060002001600090919290919091509080519060200190610da19291906112a6565b5050610e24565b806003805490501115610e23576040517f08c379a00000000000000000000000000000000000000000000000000000000081526004018080602001828103825260158152602001807f4d61782043616e6469646174652052656163686564000000000000000000000081525060200191505060405180910390fd5b5b610ea1565b6000825114610ea0576040517f08c379a00000000000000000000000000000000000000000000000000000000081526004018080602001828103825260188152602001807f436f6e74657374616e7420416c7265616479206164646564000000000000000081525060200191505060405180910390fd5b5b5050505050565b60008090505b6003805490508110156111d057610ec36111d3565b600260038381548110610ed257fe5b906000526020600020016040518082805460018160011615610100020316600290048015610f375780601f10610f15576101008083540402835291820191610f37565b820191906000526020600020905b815481529060010190602001808311610f23575b50509150509081526020016040518091039020604051806060016040529081600082018054600181600116156101000203166002900480601f016020809104026020016040519081016040528092919081815260200182805460018160011615610100020316600290048015610fee5780601f10610fc357610100808354040283529160200191610fee565b820191906000526020600020905b815481529060010190602001808311610fd157829003601f168201915b50505050508152602001600182018054600181600116156101000203166002900480601f0160208091040260200160405190810160405280929190818152602001828054600181600116156101000203166002900480156110905780601f1061106557610100808354040283529160200191611090565b820191906000526020600020905b81548152906001019060200180831161107357829003601f168201915b5050505050815260200160028201548152505090507f1ab1660476e46f2437db48a16b5f668cc20af1f9f160bb4a2ff1f6a292fb117b816000015182602001518360400151604051808060200180602001848152602001838103835286818151815260200191508051906020019080838360005b8381101561111f578082015181840152602081019050611104565b50505050905090810190601f16801561114c5780820380516001836020036101000a031916815260200191505b50838103825285818151815260200191508051906020019080838360005b8381101561118557808201518184015260208101905061116a565b50505050905090810190601f1680156111b25780820380516001836020036101000a031916815260200191505b509550505050505060405180910390a1508080600101915050610eae565b50565b60405180606001604052806060815260200160608152602001600081525090565b6040518060400160405280600015158152602001600073ffffffffffffffffffffffffffffffffffffffff1681525090565b828054600181600116156101000203166002900490600052602060002090601f016020900481019282601f1061126757805160ff1916838001178555611295565b82800160010185558215611295579182015b82811115611294578251825591602001919060010190611279565b5b5090506112a29190611326565b5090565b828054600181600116156101000203166002900490600052602060002090601f016020900481019282601f106112e757805160ff1916838001178555611315565b82800160010185558215611315579182015b828111156113145782518255916020019190600101906112f9565b5b5090506113229190611326565b5090565b61134891905b8082111561134457600081600090555060010161132c565b5090565b9056fea265627a7a72315820b307cacdfe394ac21900966d1ef6abcd9b79dc12f95ec1d503374fc7e6a25f7464736f6c63430005100032",
  "source": "// SPDX-License-Identifier: MIT\npragma solidity >=0.4.22 <0.9.0;\n\n\n\ncontract VotingContract{\n\n    uint createdTime;\n\n    struct voters {\n        bool voted;\n        address user_address;\n    }\n    mapping(address => voters) IndividualVoter;\n\n    struct Contestant {\n        string name;\n        string ward; // Where they represent\n        uint vote_count;\n\n    }\n    mapping(string => Contestant) IndividualContestant;\n    string[] ContestantList;\n\n\n    event EmitContestant (\n        string name,\n        string ward, // Where they represent\n        uint vote_count\n    );\n\n    event EmitInvidualContestant(\n        string name,\n        string ward, // Where they represent\n        uint vote_count\n    );\n    \n\n    event contesterAdded(\n        string name,\n        string ward\n    );\n\n\n    /** Add Contestant to Blockchain, checks to make sure total users not more than 5 and Checks if contestant has been added before */\n    constructor() public {\n        createdTime = block.timestamp;\n    }\n\n    function AddContestant(string memory _name, string memory _ward ) public {\n            Contestant memory _contestant = IndividualContestant[_name];\n            bytes memory _check_contestLen = bytes(_contestant.name);\n            uint total_Acceptable_con = 5; //Total number of allowed contestant, this can be made a state variable\n\n            if (_check_contestLen.length == 0) {\n                if (ContestantList.length < total_Acceptable_con) {\n                _contestant.name = _name;\n                _contestant.ward = _ward;\n                _contestant.vote_count = 0;\n                IndividualContestant[_name] = _contestant;\n                ContestantList.push(_name);\n                \n                } else if (ContestantList.length > total_Acceptable_con){\n                    revert(\"Max Candidate Reached\");\n                }\n\n            } else if (_check_contestLen.length != 0){\n                revert(\"Contestant Already added\");\n            }\n\n    }\n\n    /** Get list of all Contestant from BlockChain */\n\n    function getContestants() public {\n        for(uint i =0; i<ContestantList.length; i++) {\n            Contestant memory  _current_contestant = IndividualContestant[ContestantList[i]];\n            emit EmitContestant(_current_contestant.name, _current_contestant.ward, _current_contestant.vote_count);\n        }\n\n    }\n    /** Get Individuals Contestant from all lis and return all their attributes */\n\n    function getIndividualContestant(string memory _con_name) public {\n        Contestant memory _current_contestant = IndividualContestant[_con_name];\n        emit EmitInvidualContestant(_current_contestant.name, _current_contestant.ward, _current_contestant.vote_count);\n\n\n    }\n    /** Function to cast vote for contest, checks to make sure users dont vote twice */\n    function CastVote(string memory _name) public {\n        require(block.timestamp >= createdTime + 30);\n        voters memory _current_voter = IndividualVoter[msg.sender];\n        if (_current_voter.voted == true){\n            revert(\"You Already Voted\");\n        } else if(_current_voter.voted == false){\n            Contestant memory Voter_contestant = IndividualContestant[_name];\n            Voter_contestant.vote_count ++;\n            _current_voter.voted = true;\n            emit EmitInvidualContestant(Voter_contestant.name, Voter_contestant.ward, Voter_contestant.vote_count);\n        }\n\n    }\n\n    // function announceWinner() public view \n\n}",
  "sourcePath": "/Users/afolabi/voter_contract/contracts/voting.sol",
  "compiler": {
    "name": "solc",
    "version": "0.5.16+commit.9c3226ce.Emscripten.clang"
  },
  "schemaVersion": "3.4.1",
  "updatedAt": "2021-06-05T15:53:31.966Z",
  "devdoc": {
    "methods": {}
  },
  "userdoc": {
    "methods": {
      "CastVote(string)": {
        "notice": "Function to cast vote for contest, checks to make sure users dont vote twice "
      },
      "constructor": "Add Contestant to Blockchain, checks to make sure total users not more than 5 and Checks if contestant has been added before ",
      "getContestants()": {
        "notice": "Get list of all Contestant from BlockChain "
      },
      "getIndividualContestant(string)": {
        "notice": "Get Individuals Contestant from all lis and return all their attributes "
      }
    }
  }
}