{
  "contractName": "VotingContract",
  "abi": [
    {
      "inputs": [],
      "payable": false,
      "stateMutability": "nonpayable",
      "type": "constructor"
    },
    {
      "anonymous": false,
      "inputs": [
        {
          "indexed": false,
          "internalType": "string",
          "name": "name",
          "type": "string"
        },
        {
          "indexed": false,
          "internalType": "string",
          "name": "ward",
          "type": "string"
        },
        {
          "indexed": false,
          "internalType": "uint256",
          "name": "vote_count",
          "type": "uint256"
        }
      ],
      "name": "EmitContestant",
      "type": "event"
    },
    {
      "anonymous": false,
      "inputs": [
        {
          "indexed": false,
          "internalType": "string",
          "name": "name",
          "type": "string"
        },
        {
          "indexed": false,
          "internalType": "string",
          "name": "ward",
          "type": "string"
        },
        {
          "indexed": false,
          "internalType": "uint256",
          "name": "vote_count",
          "type": "uint256"
        }
      ],
      "name": "EmitInvidualContestant",
      "type": "event"
    },
    {
      "anonymous": false,
      "inputs": [
        {
          "indexed": false,
          "internalType": "string",
          "name": "name",
          "type": "string"
        },
        {
          "indexed": false,
          "internalType": "string",
          "name": "ward",
          "type": "string"
        },
        {
          "indexed": false,
          "internalType": "uint256",
          "name": "vote_count",
          "type": "uint256"
        }
      ],
      "name": "contesterAdded",
      "type": "event"
    },
    {
      "constant": false,
      "inputs": [
        {
          "internalType": "string",
          "name": "_name",
          "type": "string"
        },
        {
          "internalType": "string",
          "name": "_ward",
          "type": "string"
        }
      ],
      "name": "AddContestant",
      "outputs": [],
      "payable": false,
      "stateMutability": "nonpayable",
      "type": "function"
    },
    {
      "constant": false,
      "inputs": [],
      "name": "getContestants",
      "outputs": [],
      "payable": false,
      "stateMutability": "nonpayable",
      "type": "function"
    },
    {
      "constant": false,
      "inputs": [
        {
          "internalType": "string",
          "name": "_con_name",
          "type": "string"
        }
      ],
      "name": "getIndividualContestant",
      "outputs": [],
      "payable": false,
      "stateMutability": "nonpayable",
      "type": "function"
    },
    {
      "constant": false,
      "inputs": [
        {
          "internalType": "string",
          "name": "_name",
          "type": "string"
        }
      ],
      "name": "CastVote",
      "outputs": [],
      "payable": false,
      "stateMutability": "nonpayable",
      "type": "function"
    },
    {
      "constant": true,
      "inputs": [],
      "name": "announceWinner",
      "outputs": [
        {
          "internalType": "string",
          "name": "",
          "type": "string"
        },
        {
          "internalType": "string",
          "name": "",
          "type": "string"
        },
        {
          "internalType": "uint256",
          "name": "",
          "type": "uint256"
        }
      ],
      "payable": false,
      "stateMutability": "view",
      "type": "function"
    }
  ],
  "bytecode": "0x608060405234801561001057600080fd5b5042600081905550611895806100276000396000f3fe608060405234801561001057600080fd5b5060043610610074576000357c01000000000000000000000000000000000000000000000000000000009004806318c7e5ec146100795780632d8cd0961461013457806364021fc91461022a5780636d6792ec146102e5578063c10196fa14610437575b600080fd5b6101326004803603602081101561008f57600080fd5b81019080803590602001906401000000008111156100ac57600080fd5b8201836020820111156100be57600080fd5b803590602001918460018302840111640100000000831117156100e057600080fd5b91908080601f016020809104026020016040519081016040528093929190818152602001838380828437600081840152601f19601f820116905080830192505050505050509192919290505050610441565b005b61013c61072e565b604051808060200180602001848152602001838103835286818151815260200191508051906020019080838360005b8381101561018657808201518184015260208101905061016b565b50505050905090810190601f1680156101b35780820380516001836020036101000a031916815260200191505b50838103825285818151815260200191508051906020019080838360005b838110156101ec5780820151818401526020810190506101d1565b50505050905090810190601f1680156102195780820380516001836020036101000a031916815260200191505b509550505050505060405180910390f35b6102e36004803603602081101561024057600080fd5b810190808035906020019064010000000081111561025d57600080fd5b82018360208201111561026f57600080fd5b8035906020019184600183028401116401000000008311171561029157600080fd5b91908080601f016020809104026020016040519081016040528093929190818152602001838380828437600081840152601f19601f820116905080830192505050505050509192919290505050610beb565b005b610435600480360360408110156102fb57600080fd5b810190808035906020019064010000000081111561031857600080fd5b82018360208201111561032a57600080fd5b8035906020019184600183028401116401000000008311171561034c57600080fd5b91908080601f016020809104026020016040519081016040528093929190818152602001838380828437600081840152601f19601f820116905080830192505050505050509192919290803590602001906401000000008111156103af57600080fd5b8201836020820111156103c157600080fd5b803590602001918460018302840111640100000000831117156103e357600080fd5b91908080601f016020809104026020016040519081016040528093929190818152602001838380828437600081840152601f19601f820116905080830192505050505050509192919290505050610ecf565b005b61043f6113ef565b005b61044961171a565b6002826040518082805190602001908083835b6020831061047f578051825260208201915060208101905060208303925061045c565b6001836020036101000a0380198251168184511680821785525050505050509050019150509081526020016040518091039020604051806060016040529081600082018054600181600116156101000203166002900480601f0160208091040260200160405190810160405280929190818152602001828054600181600116156101000203166002900480156105565780601f1061052b57610100808354040283529160200191610556565b820191906000526020600020905b81548152906001019060200180831161053957829003601f168201915b50505050508152602001600182018054600181600116156101000203166002900480601f0160208091040260200160405190810160405280929190818152602001828054600181600116156101000203166002900480156105f85780601f106105cd576101008083540402835291602001916105f8565b820191906000526020600020905b8154815290600101906020018083116105db57829003601f168201915b5050505050815260200160028201548152505090507f8caf956ab0161ce67ddb4a969029c6a70ca3d92002969f078fed67fafd0cb2f9816000015182602001518360400151604051808060200180602001848152602001838103835286818151815260200191508051906020019080838360005b8381101561068757808201518184015260208101905061066c565b50505050905090810190601f1680156106b45780820380516001836020036101000a031916815260200191505b50838103825285818151815260200191508051906020019080838360005b838110156106ed5780820151818401526020810190506106d2565b50505050905090810190601f16801561071a5780820380516001836020036101000a031916815260200191505b509550505050505060405180910390a15050565b60608060008060009050606060008090505b6003805490508110156109605761075561171a565b60026003838154811061076457fe5b9060005260206000200160405180828054600181600116156101000203166002900480156107c95780601f106107a75761010080835404028352918201916107c9565b820191906000526020600020905b8154815290600101906020018083116107b5575b50509150509081526020016040518091039020604051806060016040529081600082018054600181600116156101000203166002900480601f0160208091040260200160405190810160405280929190818152602001828054600181600116156101000203166002900480156108805780601f1061085557610100808354040283529160200191610880565b820191906000526020600020905b81548152906001019060200180831161086357829003601f168201915b50505050508152602001600182018054600181600116156101000203166002900480601f0160208091040260200160405190810160405280929190818152602001828054600181600116156101000203166002900480156109225780601f106108f757610100808354040283529160200191610922565b820191906000526020600020905b81548152906001019060200180831161090557829003601f168201915b50505050508152602001600282015481525050905083816040015111156109525780604001519350806000015192505b508080600101915050610740565b506002816040518082805190602001908083835b602083106109975780518252602082019150602081019050602083039250610974565b6001836020036101000a03801982511681845116808217855250505050505090500191505090815260200160405180910390206000016002826040518082805190602001908083835b60208310610a0357805182526020820191506020810190506020830392506109e0565b6001836020036101000a03801982511681845116808217855250505050505090500191505090815260200160405180910390206001016002836040518082805190602001908083835b60208310610a6f5780518252602082019150602081019050602083039250610a4c565b6001836020036101000a038019825116818451168082178552505050505050905001915050908152602001604051809103902060020154828054600181600116156101000203166002900480601f016020809104026020016040519081016040528092919081815260200182805460018160011615610100020316600290048015610b3b5780601f10610b1057610100808354040283529160200191610b3b565b820191906000526020600020905b815481529060010190602001808311610b1e57829003601f168201915b50505050509250818054600181600116156101000203166002900480601f016020809104026020016040519081016040528092919081815260200182805460018160011615610100020316600290048015610bd75780601f10610bac57610100808354040283529160200191610bd7565b820191906000526020600020905b815481529060010190602001808311610bba57829003601f168201915b505050505091509450945094505050909192565b6000600160003373ffffffffffffffffffffffffffffffffffffffff1673ffffffffffffffffffffffffffffffffffffffff1681526020019081526020016000209050600115158160000160009054906101000a900460ff1615151415610cba576040517f08c379a00000000000000000000000000000000000000000000000000000000081526004018080602001828103825260118152602001807f596f7520416c726561647920566f74656400000000000000000000000000000081525060200191505060405180910390fd5b600115158160000160009054906101000a900460ff16151514610ecb5760006002836040518082805190602001908083835b60208310610d0f5780518252602082019150602081019050602083039250610cec565b6001836020036101000a038019825116818451168082178552505050505050905001915050908152602001604051809103902090506001816002016000828254019250508190555060018260000160006101000a81548160ff0219169083151502179055507f8caf956ab0161ce67ddb4a969029c6a70ca3d92002969f078fed67fafd0cb2f981600001826001018360020154604051808060200180602001848152602001838103835286818154600181600116156101000203166002900481526020019150805460018160011615610100020316600290048015610e355780601f10610e0a57610100808354040283529160200191610e35565b820191906000526020600020905b815481529060010190602001808311610e1857829003601f168201915b5050838103825285818154600181600116156101000203166002900481526020019150805460018160011615610100020316600290048015610eb85780601f10610e8d57610100808354040283529160200191610eb8565b820191906000526020600020905b815481529060010190602001808311610e9b57829003601f168201915b50509550505050505060405180910390a1505b5050565b610ed761171a565b6002836040518082805190602001908083835b60208310610f0d5780518252602082019150602081019050602083039250610eea565b6001836020036101000a0380198251168184511680821785525050505050509050019150509081526020016040518091039020604051806060016040529081600082018054600181600116156101000203166002900480601f016020809104026020016040519081016040528092919081815260200182805460018160011615610100020316600290048015610fe45780601f10610fb957610100808354040283529160200191610fe4565b820191906000526020600020905b815481529060010190602001808311610fc757829003601f168201915b50505050508152602001600182018054600181600116156101000203166002900480601f0160208091040260200160405190810160405280929190818152602001828054600181600116156101000203166002900480156110865780601f1061105b57610100808354040283529160200191611086565b820191906000526020600020905b81548152906001019060200180831161106957829003601f168201915b505050505081526020016002820154815250509050606081600001519050600060059050600082511415611370578060038054905010156112f0578483600001819052508383602001819052506000836040018181525050826002866040518082805190602001908083835b6020831061111557805182526020820191506020810190506020830392506110f2565b6001836020036101000a0380198251168184511680821785525050505050509050019150509081526020016040518091039020600082015181600001908051906020019061116492919061173b565b50602082015181600101908051906020019061118192919061173b565b506040820151816002015590505060038590806001815401808255809150509060018203906000526020600020016000909192909190915090805190602001906111cc9291906117bb565b50507f27f4faa638b7797521a6f2340316d2bad1452d68247446243d5292c35d6dd996836000015184602001518560400151604051808060200180602001848152602001838103835286818151815260200191508051906020019080838360005b8381101561124857808201518184015260208101905061122d565b50505050905090810190601f1680156112755780820380516001836020036101000a031916815260200191505b50838103825285818151815260200191508051906020019080838360005b838110156112ae578082015181840152602081019050611293565b50505050905090810190601f1680156112db5780820380516001836020036101000a031916815260200191505b509550505050505060405180910390a161136b565b806003805490501061136a576040517f08c379a00000000000000000000000000000000000000000000000000000000081526004018080602001828103825260158152602001807f4d61782043616e6469646174652052656163686564000000000000000000000081525060200191505060405180910390fd5b5b6113e8565b60008251146113e7576040517f08c379a00000000000000000000000000000000000000000000000000000000081526004018080602001828103825260188152602001807f436f6e74657374616e7420416c7265616479206164646564000000000000000081525060200191505060405180910390fd5b5b5050505050565b60008090505b6003805490508110156117175761140a61171a565b60026003838154811061141957fe5b90600052602060002001604051808280546001816001161561010002031660029004801561147e5780601f1061145c57610100808354040283529182019161147e565b820191906000526020600020905b81548152906001019060200180831161146a575b50509150509081526020016040518091039020604051806060016040529081600082018054600181600116156101000203166002900480601f0160208091040260200160405190810160405280929190818152602001828054600181600116156101000203166002900480156115355780601f1061150a57610100808354040283529160200191611535565b820191906000526020600020905b81548152906001019060200180831161151857829003601f168201915b50505050508152602001600182018054600181600116156101000203166002900480601f0160208091040260200160405190810160405280929190818152602001828054600181600116156101000203166002900480156115d75780601f106115ac576101008083540402835291602001916115d7565b820191906000526020600020905b8154815290600101906020018083116115ba57829003601f168201915b5050505050815260200160028201548152505090507f1ab1660476e46f2437db48a16b5f668cc20af1f9f160bb4a2ff1f6a292fb117b816000015182602001518360400151604051808060200180602001848152602001838103835286818151815260200191508051906020019080838360005b8381101561166657808201518184015260208101905061164b565b50505050905090810190601f1680156116935780820380516001836020036101000a031916815260200191505b50838103825285818151815260200191508051906020019080838360005b838110156116cc5780820151818401526020810190506116b1565b50505050905090810190601f1680156116f95780820380516001836020036101000a031916815260200191505b509550505050505060405180910390a15080806001019150506113f5565b50565b60405180606001604052806060815260200160608152602001600081525090565b828054600181600116156101000203166002900490600052602060002090601f016020900481019282601f1061177c57805160ff19168380011785556117aa565b828001600101855582156117aa579182015b828111156117a957825182559160200191906001019061178e565b5b5090506117b7919061183b565b5090565b828054600181600116156101000203166002900490600052602060002090601f016020900481019282601f106117fc57805160ff191683800117855561182a565b8280016001018555821561182a579182015b8281111561182957825182559160200191906001019061180e565b5b509050611837919061183b565b5090565b61185d91905b80821115611859576000816000905550600101611841565b5090565b9056fea265627a7a723158209558015528cc4a44747aac0e107e5512f19c70219c92d320f3ac7a956b74a02f64736f6c63430005100032",
  "source": "// SPDX-License-Identifier: MIT\npragma solidity >=0.4.22 <0.9.0;\n\n\n\ncontract VotingContract{\n\n    uint createdTime;\n\n    struct voters {\n        bool voted;\n        address user_address;\n    }\n    mapping(address => voters) IndividualVoter;\n\n    struct Contestant {\n        string name;\n        string ward; // Where they represent\n        uint vote_count;\n\n    }\n    mapping(string => Contestant) IndividualContestant;\n    string[] ContestantList;\n\n\n    event EmitContestant (\n        string name,\n        string ward, // Where they represent\n        uint vote_count\n    );\n\n    event EmitInvidualContestant(\n        string name,\n        string ward, // Where they represent\n        uint vote_count\n    );\n    \n\n    event contesterAdded(\n        string name,\n        string ward,\n        uint vote_count\n    );\n\n\n    /** Add Contestant to Blockchain, checks to make sure total users not more than 5 and Checks if contestant has been added before */\n    constructor() public {\n        createdTime = block.timestamp;\n    }\n\n    function AddContestant(string memory _name, string memory _ward ) public {\n            Contestant memory _contestant = IndividualContestant[_name];\n            bytes memory _check_contestLen = bytes(_contestant.name);\n            uint total_Acceptable_con = 5; //Total number of allowed contestant, this can be made a state variable\n\n            if (_check_contestLen.length == 0) {\n                if (ContestantList.length < total_Acceptable_con) {\n                _contestant.name = _name;\n                _contestant.ward = _ward;\n                _contestant.vote_count = 0;\n                IndividualContestant[_name] = _contestant;\n                ContestantList.push(_name);\n                emit contesterAdded(_contestant.name, _contestant.ward, _contestant.vote_count);\n                } else if (ContestantList.length >= total_Acceptable_con){\n                    revert(\"Max Candidate Reached\");\n                }\n\n            } else if (_check_contestLen.length != 0){\n                revert(\"Contestant Already added\");\n            }\n\n    }\n\n    /** Get list of all Contestant from BlockChain */\n\n    function getContestants() public {\n        for(uint i =0; i<ContestantList.length; i++) {\n            Contestant memory  _current_contestant = IndividualContestant[ContestantList[i]];\n            emit EmitContestant(_current_contestant.name, _current_contestant.ward, _current_contestant.vote_count);\n        }\n\n    }\n    /** Get Individuals Contestant from all lis and return all their attributes */\n\n    function getIndividualContestant(string memory _con_name) public {\n        Contestant memory _current_contestant = IndividualContestant[_con_name];\n        emit EmitInvidualContestant(_current_contestant.name, _current_contestant.ward, _current_contestant.vote_count);\n\n\n    }\n    /** Function to cast vote for contest, checks to make sure users dont vote twice */\n    function CastVote(string memory _name) public {\n        // require(block.timestamp >= createdTime + 30);\n        voters storage _current_voter = IndividualVoter[msg.sender];\n        if (_current_voter.voted == true){\n            revert(\"You Already Voted\");\n        } else if(_current_voter.voted != true){\n            Contestant storage Voter_contestant = IndividualContestant[_name];\n            Voter_contestant.vote_count +=1;\n            _current_voter.voted = true;\n            emit EmitInvidualContestant(Voter_contestant.name, Voter_contestant.ward, Voter_contestant.vote_count);\n        }\n\n    }\n\n    function announceWinner() public view returns(string memory, string memory, uint){\n        uint WinnerCount = 0;\n        string memory winner_name;\n        for(uint i =0; i<ContestantList.length; i++) {\n            Contestant memory winner =  IndividualContestant[ ContestantList[i] ];\n            if( winner.vote_count > WinnerCount){\n                WinnerCount = winner.vote_count;\n                winner_name = winner.name;\n            }\n    }\n    \n        return(IndividualContestant[winner_name].name, IndividualContestant[winner_name].ward, IndividualContestant[winner_name].vote_count);\n\n}\n}",
  "sourcePath": "/Users/afolabi/voter_contract/contracts/voting.sol",
  "compiler": {
    "name": "solc",
    "version": "0.5.16+commit.9c3226ce.Emscripten.clang"
  },
  "schemaVersion": "3.4.1",
  "updatedAt": "2021-06-06T17:19:22.837Z",
  "networkType": "ethereum",
  "devdoc": {
    "methods": {}
  },
  "userdoc": {
    "methods": {
      "CastVote(string)": {
        "notice": "Function to cast vote for contest, checks to make sure users dont vote twice "
      },
      "constructor": "Add Contestant to Blockchain, checks to make sure total users not more than 5 and Checks if contestant has been added before ",
      "getContestants()": {
        "notice": "Get list of all Contestant from BlockChain "
      },
      "getIndividualContestant(string)": {
        "notice": "Get Individuals Contestant from all lis and return all their attributes "
      }
    }
  }
}